:100000000C9475010C94BC010C94BC010C94BC01C3
:100010000C94BC010C94BC010C94BC010C94BC016C
:100020000C94BC010C94BC010C94B5190C94891A65
:100030000C94ED140C94BC010C94BC010C94BC0108
:100040000C94BC010C94BC010C94BC010C94BC013C
:100050000C94BC010C9438150C94BC010C94BC019C
:100060000C94BC010C94BC010C94BC010C94BC011C
:100070000C94BC010C94BC010C94BC010C94BC010C
:100080000C94BC010C94BC010C94BC010C94BC01FC
:100090000C94BC010C94BC010C94BC010C94BC01EC
:1000A0000C94BC010C94BC010C94BC0129001400FC
:1000B0001A000800150017001C0018000C001200A0
:1000C00013002A002B0004001600070009000A0094
:1000D0000B000D000E000F0000002800E1000000E2
:1000E0001D001B0006001900050011001000295D0D
:1000F00052003900E000E3000000E20000002C00A4
:10010000000001510251500051004F0035001E0007
:100110001F002000210022002300240025002600CB
:1001200027003100390049004A004B002D002E0005
:100130002F003000330034000000010001000000F7
:100140004C004D004E000100360037003800010021
:100150000100010001000100000001000000010099
:100160000000010001000100010001003A003B0015
:100170003C003D003E003F00400041004200430083
:1001800044004500010001000100010001000100E0
:100190000100BE00BD0001000000010001000000E0
:1001A0004600470048000100A800AA00A90001007D
:1001B0000100010001000100000001000000005CDE
:1001C0000000010001000100010001000A035800C5
:1001D000740072006D00000012034C0065006F0097
:1001E0002000440065006E0067000000040309045D
:1001F00009023B00020100A0FA090400000103010A
:1002000001000921110100012240000705810308B6
:10021000000A090401000103000000092111010086
:1002200001226D000705820320000A12011001005F
:1002300000000829DE037301000102000105010925
:1002400080A101850319012AB700150126B7009581
:100250000175108100C0050C0901A1018504190177
:100260002AA002150126A002950175108100C00583
:10027000010906A1018505050719E029E7150025F3
:10028000019508750181020507190029EF15002560
:100290000195F0750181020508190129059505757B
:1002A000019102950175039101C005010906A101A3
:1002B000050719E029E71500250195087501810258
:1002C0009501750881010507190029FF150026FF12
:1002D0000095067508810005081901290595057521
:1002E000019102950175039101C011241FBECFEF4A
:1002F000DAE0DEBFCDBF04B603FE27C080917602F0
:1003000090917702A0917802B09179028730904B5A
:10031000A740B04BD1F4109276021092770210925F
:1003200078021092790214BE84B7877F84BF0FB61B
:10033000F894A89580916000886180936000109285
:1003400060000FBEE0E0F8E3099511E0A0E0B1E045
:10035000EAEAF9E302C005900D92A039B107D9F796
:1003600022E0A0E9B1E001C01D92A637B207E1F793
:100370000E94F7160C94AB1C0C94000090E080E0F7
:10038000089508950895FB01823E910561F0893238
:100390002DE5920761F0803E910519F482818093EA
:1003A000910181E00895828180939001FACF82814A
:1003B000882339F080EE0E94C2098CE20E94C209B3
:1003C000F0CF8CE20E94080A80EE0E94080AE9CF72
:1003D00081FF03C0519A599808955198FCCFCF934B
:1003E000C62F6091020270910302809104029091E5
:1003F00005020E94E412813031F1882321F082301D
:1004000039F1CF91089580919101882331F080E5F1
:10041000C1118FE4CF910C94300A80919001882310
:1004200069F08BE2C111F6CF81EE0E94C2098BE226
:100430000E94300A81EECF910C94080A8BE4CC2301
:1004400049F38EE4E7CF8AEACC2321F389EAE2CFAD
:100450008EEBCC23F9F28DEBDDCF81E008950C9487
:10046000C30108950C9431021F93CF93DF9300D002
:1004700000D00F92CDB7DEB749835A836B8330919A
:10048000AB0189819A8131111DC06623B9F0222305
:10049000A9F00E94A011182F682F89819A810E94CB
:1004A0004C1169817A81812F0F900F900F900F90DE
:1004B0000F90DF91CF911F910C94E0020E94781170
:1004C000182FEFCF0E94A01169817A81EDCFFC0136
:1004D000262F408151816281738184810C94340282
:1004E000CF93DF93EC0160E00E946702BE01DF91D1
:1004F000CF910C9432020E943113811102C00E94EC
:10050000D5130C94E2040C94E40408950E94B60CF4
:100510000E9485022FEF84E39CE0215080409040B0
:10052000E1F700C000000C945C150F931F93CF936C
:10053000DF93EC0161E00E9467028C01BE010E9422
:100540002F02882329F1BE01C8010E94C806882312
:10055000F9F0BE01C8010E941A078823C9F0BE0144
:10056000C8010E943D08882399F08A81882339F0C8
:1005700001158CE5180751F00F3D1C4579F0CE01AF
:10058000DF91CF911F910F910C942D020E94860252
:1005900080E0DF91CF911F910F9108950E94D513B4
:1005A000F7CF0C94E80181E008950C94D302CF9327
:1005B000C82F0E94D1028C2FCF910C94D5020895A0
:1005C000972F70E02CE0929F600D711D1124FB01AC
:1005D00090E3899FE00DF11D1124EE0FFF1FE455FC
:1005E000FF4F859194910895FC01EE0FFF1FE45396
:1005F000FE4F859194910895CF93DF930E94E0027E
:100600000E940804EC01811520E5920708F041C022
:10061000811530E4930708F0B4C0803E910518F5C9
:10062000803C910508F09DC0883A910570F4853AA8
:10063000910508F08EC081309105F9F00097E9F03E
:100640000497D8F4D0E0C0E018C08F3B9105D0F7F4
:10065000C85AD0E0CC0FDD1FC35FDE4F0990D881B0
:10066000C02DD4640AC08115904258F4C11581E0B0
:10067000D80718F4C83ED10528F7CE01DF91CF91F5
:100680000895C11590E3D90708F071C0CE019F709D
:100690006AC0811525E5920758F5811534E5930761
:1006A00008F09EC0811542E5940750F4C11581E51C
:1006B000D80708F469C0DC2FCC27C16FD06ADDCF22
:1006C000982F969596959E0123703327C115D34593
:1006D00008F077C0C1E0D0E002C0CC0FDD1F2A9542
:1006E000E2F720E2929FC0011124C82BD92B67C0EA
:1006F000C11589E5D807A8F4C11598E5D90708F010
:1007000074C0C11526E5D20708F09CCF8C2F0E943B
:100710009F04C82FD0E0DC2FCC27CC27DF71D0621C
:10072000ACCFC1153AE5D30708F464C0CE019056AA
:100730008115904208F086CF8D2F8F710E949F0403
:1007400090E0982F882788279F719C012C2BE90126
:10075000E6CFC55AD0E0C55CDE4FC881D0E0D0649A
:100760008CCF805C91090E94F402EC0186CFCE010F
:100770009927D3FF03C0EC01D86C7FCFEC01D06C7C
:100780007CCFDF70D06A79CFCE01E4E09695879573
:10079000EA95E1F783702C2F26952695237090E239
:1007A000299F90011124382B8C2F8370C1E0D0E059
:1007B00002C0CC0FDD1F8A95E2F7C22BD32BDC6879
:1007C0005CCFC1E0D0E002C0CC0FDD1F2A95E2F77C
:1007D00030E2939FC0011124C82BD92BDA684DCF8A
:1007E000D82FCC27C46FD06A48CFDC2FCC27C06F5E
:1007F000D06A43CF8C2F8F700E949F0434E0D6952F
:10080000C7953A95E1F7CF709C2FEC01D06935CFB1
:1008100082389105B1F1B0F48133910509F475C0C6
:1008200048F48932910509F469C08A32910509F4C6
:1008300073C008958533910509F459C08933910532
:1008400001F10895833E9105A9F138F4803E9105A8
:10085000F9F0823E910549F10895863E9105A9F18E
:10086000873E9105C9F1843E910519F520916802F2
:1008700021FF1FC08091670284FD14C087EE90E0C5
:100880000895209167022370A1F080EE90E0089512
:100890002091670220FD47C03091680230FF09C0F7
:1008A00024FF44C090E080E004C02091670222FD54
:1008B000F7CF08952091670222FD3BC03091680276
:1008C00030FDE3CF24FFF5CFEDCF2091670223FF6A
:1008D000F0CF24FDE7CFD2CF2091670223FD2CC0BB
:1008E0003091680231FFEECF84EE90E008952091C0
:1008F000670225FFDECF89E290E00895209167022C
:1009000025FFD7CF85E390E008952091670226FF69
:10091000D0CF8AE290E008952091670226FFC9CFE8
:1009200081E390E0089589E390E0089583EE90E0FC
:10093000089582EE90E0089586EE90E008959091FB
:10094000670292FF06C0282F28712830F9F4877FAC
:10095000846093FF06C0282F28712831F1F4877E28
:1009600084612091680220FF06C0382F387138302A
:10097000D9F4877F816021FF06C0282F2871283194
:10098000D1F4877E816194FD877E0895282F24719C
:100990002430F9F68B7F8860DCCF282F2471243136
:1009A00001F78B7E8861DDCF382F3171313019F737
:1009B0008E7F8860E0CF282F2171213121F78E7E34
:1009C0008861E1CF0C94C1010C94C201E82FF0E0E2
:1009D000EE0FFF1FE55AFD4F808191810895089524
:1009E00080EA8A95F1F70895F894E82FE295EF7080
:1009F000F0E031A1282F2F7081E090E001C0880F36
:100A00002A95EAF7982F9095932391A392A1892B89
:100A100082A378940895CF93DF9382E90E94F4042F
:100A200083E90E94F40481EF0E94F40487E30E94AA
:100A3000F404CEE3D1E089910E94F40481E0CA3449
:100A4000D807C9F7109254021092530210925C0218
:100A500010925B02109256021092550210925E02A2
:100A600010925D021092580210925702109260028A
:100A700010925F0210925A02109259021092620272
:100A80001092610284E00E94C705DF91CF910C941F
:100A90007B02AF92BF92DF92EF92FF920F931F9370
:100AA000CF93DF93CAE4D1E003E512E0D12CEE242A
:100AB000E394F12C8991F894E82FE295EF70F0E03F
:100AC00021A18F70A70102C0440F551F8A95E2F73C
:100AD000CA01922F982B91A392A18095892382A37A
:100AE00078940E94F004EEE3F1E030E020E0B12CD5
:100AF000A12C4191A42FA295AF70B0E090968C915B
:100B000090E04F7002C0959587954A95E2F780FD79
:100B100039C0C701022E02C0880F991F0A94E2F75C
:100B2000A82AB92A2F5F3F4F2C30310511F7FE015B
:100B3000319780810E94F404F80180819181A81688
:100B4000B90619F1B182A08281E0D82A0E5F1F4F49
:100B5000F1E0CE34DF0709F0ADCF2D2D44E06BE599
:100B600072E083E592E00E94C8050E9483028D2D09
:100B7000DF91CF911F910F91FF90EF90DF90BF9089
:100B8000AF90089590E080E0CBCF80E0DECF089575
:100B9000FF920F931F93CF93DF93F82E092F162FF9
:100BA000D72FC42F222349F081E0809394010E9423
:100BB0001D15909393018093920180919401882355
:100BC000A1F080919201909193010E9429150697BE
:100BD00060F0EF2DF02FA12FBD2F90E080E0D0E04E
:100BE0008C179D0744F010929401DF91CF911F91D3
:100BF0000F91FF900895219131912D933D9301968E
:100C0000EFCF0C94EF0157985F9A56985E9A89B18E
:100C100090E0880F892F881F990B4E9905C020E01E
:100C2000822B80939701089522E0FACFE0919701FB
:100C3000EE0FEE0FE093970189B190E0880F892FB6
:100C4000881F990B49B146FB222720F946FF02C0B5
:100C500022E030E0822BE82BE0939701EF70F0E088
:100C6000E25BFE4F808190919601890F80939601FF
:100C700084304CF0809195018F5F8093950160E006
:100C800080E00E940106809196018D3F4CF4809196
:100C9000950181508093950161E080E00E940106FA
:100CA00080919601082E000C990B64E070E00E9480
:100CB0003B1C8093960108950F931F93CF93DF936E
:100CC000C42FD22FFC0182818823C9F040939A015E
:100CD0000E941D15909399018093980180E28C0FDA
:100CE000883008F050C0C77081E001C0880FCA95F5
:100CF000EAF7DF91CF911F910F910C944B0A10915D
:100D00009A01141335C080919801909199010E9425
:100D10002915883C910560F5C0E2CD0F1D17B9F08B
:100D200080E2810F883040F4177081E001C0880FA5
:100D30001A95EAF70E94520AC83048F481E09D2FC4
:100D4000977001C0880F9A95EAF70E944B0A802F8E
:100D50000E94300AC830B8F4D77081E001C0880F13
:100D6000DA95EAF7DF91CF911F910F910C94520A17
:100D700080E28C0F883038F4C77081E001C0880FA2
:100D8000CA95EAF7EFCFDF91CF911F910F910895A8
:100D90000F939C01CB01243F4CE5340759F1A8F493
:100DA000293DFCE53F0701F12A3D4CE53407D1F12F
:100DB000283D3C4591F406E221EE41EE68ED7CE5EC
:100DC0000E945C0680E00F910895263FFCE53F07F6
:100DD000E9F0B0F0273F3C45F9F0FC01828188231F
:100DE00039F110929A01EFCF07E225EE45EE69ED59
:100DF0007CE5E6CF06E221EE40EE64EF7CE5E0CF55
:100E000007E225EE44EE65EF7CE5DACF06E221EE5F
:100E100042EE66EF7CE5D4CF07E225EE46EE67EFC3
:100E20007CE5CECF08E221E045EE6AED7CE5C8CF57
:100E300081E0C9CFCF93DF93EC01FB01828188234E
:100E400009F419C1C230FCE5DF07C0F1C6319CE5E9
:100E5000D90730F09E012B5F3C452930310570F5F4
:100E60000E9444139093680280936702C031ECE5BE
:100E7000DE0709F4CFC008F05BC0C8308CE5D807A6
:100E800009F4B6C088F5C430ECE5DE0709F4A8C063
:100E9000C0F4C2308CE5D80709F49CC08091670289
:100EA0008260C330DC4509F498C08091670290915C
:100EB00068020E9452130E94B60C80E0DF91CF912D
:100EC0000895809167028061C630ECE5DE0709F481
:100ED00084C0809167028860C730DC4508F47DC01B
:100EE00080916702806279C0CC308CE5D80709F424
:100EF00089C070F4809167028C60CA30ECE5DE072F
:100F000009F46BC008F478C0809167028E7F65C0D9
:100F1000CE308CE5D80709F479C0809167028B7FC9
:100F2000CF30DC4508F459C0809167028F7E55C0F0
:100F3000CC3FECE5DE0709F457C030F5C3318CE552
:100F4000D80709F46FC078F4C131ECE5DE0709F485
:100F500065C0C231DC4509F0A8CF0E94B60C809173
:100F600067028F773AC0C5318CE5D80709F462C0B3
:100F700008F476C0809168028160CB3FDC4509F0BF
:100F800094CF8093680291CFC115FDE5DF0709F486
:100F90004DC088F4809168028D7FCE3F9CE5D907D3
:100FA00081F3809168028E7FCF3FDC4550F38091C2
:100FB00068028360E6CFC230FDE5DF0709F459C05F
:100FC00008F444C080E0C330DD4509F06ECF0E94D4
:100FD000D7136BCF8091670281608093670265CFE2
:100FE000809167028460F9CF809168028260C9CFE6
:100FF000809167028064F1CF0E94B60C80916702F5
:101000008068EBCF809167028D7FE7CF8091670288
:10101000877FE3CF809167028F7DDFCF809167026A
:101020008F7BDBCF80916702837FD7CF809168026F
:101030008C7FA7CF8091670282FB992790F921E0EE
:10104000922790FB82F990FB83F9C7CF80916802C9
:10105000982F909591708E7F892B90FB81F991CF7D
:101060000E94B60C90916702892F97FB87F98058F0
:10107000B4CF81E0ACCF81E021CFCF93DF93EB0100
:1010800086319C4511F50E9435129A81992399F079
:101090008A7A91E009F490E090939B01811109C054
:1010A00089E20E9410120E94811280E0DF91CF91AC
:1010B000089585E3F6CF80919B01811104C089E2F8
:1010C0000E941712F0CF85E3FBCF81E0EFCF909322
:1010D000A1018093A0010895E091A001F091A101E8
:1010E000309721F00190F081E02D099480E008957F
:1010F000E091A001F091A101309799F020910C01AD
:10110000222359F02091670227FF07C0DC012C91B0
:1011100011962C93119725E02C930280F381E02DFA
:101120000994089520919E0130919F012817390755
:1011300071F090939F0180939E01E091A001F09146
:10114000A101309721F00680F781E02D09940895E0
:1011500020919C0130919D012817390771F09093DF
:101160009D0180939C01E091A001F091A101309735
:1011700021F00084F185E02D0994089585B78068F9
:1011800085BF85B7806885BF0895089508950C943C
:10119000C50808950C94C9080E94BE080E94C6089C
:1011A0000C94C70881E008950C94D208089508951E
:1011B0000E9414150E940B050E9480150E940306D0
:1011C0000C94CA089F92AF92BF92CF92DF92EF9297
:1011D000FF920F931F93CF93DF93CDB7DEB72A977C
:1011E0000FB6F894DEBF0FBECDBF0E94D6080E9496
:1011F000D7080E9449050E94D408882309F470C0CA
:1012000053EAA52E51E0B52E10E000E0902E802F7D
:101210000E94E6046C01F501E190F1905F01E8168F
:10122000F90609F457C080912F0281FD0E94EF0456
:1012300097012C253D2580E0EE24E394F12CA901B3
:101240004E215F21452B09F43FC08E839F82CE2023
:10125000DF2081E0CD2809F480E088870E941D15F9
:101260008160782F9A8789874E815F8168858A851A
:101270000E949309000F111FF801ED55FE4F808168
:101280009181E826F926F182E0820E9416060E94EA
:101290006C089091A2018917A1F10E946C088093BB
:1012A000A2012A960FB6F894DEBF0FBECDBFDF9124
:1012B000CF911F910F91FF90EF90DF90CF90BF9053
:1012C000AF909F900C94D7028F5FEE0CFF1C8C3078
:1012D00009F0B5CF0F5F1F4F0430110509F096CF0D
:1012E0008FEF89838A831B820E941D158160782F6E
:1012F0009D838C8349815A816B818D810E949309E2
:10130000C4CF2A960FB6F894DEBF0FBECDBFDF91D3
:10131000CF911F910F91FF90EF90DF90CF90BF90F2
:10132000AF909F900895CF93DF93CDB7DEB72B9703
:101330000FB6F894DEBF0FBECDBF4F8358876987C5
:101340007A878B871E821D8285E0FE013796DE013B
:10135000119601900D928A95E1F749815A816B812E
:101360007C818D819E812B960FB6F894DEBF0FBED7
:10137000CDBFDF91CF910C942C0FFC018081918126
:101380000C94E211CF93C82F882309F43FC08CEF4F
:101390008C0F813AA0F46C2F809100019091010193
:1013A0000E94F013882329F08C2F0E9417120E94AC
:1013B00081128C2F0E941012CF910C94811280E226
:1013C0008C0F883048F4C77081E001C0880FCA953F
:1013D000EAF70E943812F0CFEBE5EC0FE33040F46F
:1013E000F0E0E457FE4F808190E0CF910C9492089A
:1013F000C85AC73158F4EC2FF0E0EE0FFF1FE25A45
:10140000FE4F80819181CF910C94A808CF910895CF
:10141000882329F19CEF980F913A20F40E9417122B
:101420000C94811290E2980F983050F4877091E0FC
:1014300001C0990F8A95EAF7892F0E943E12F0CFDA
:101440009BE5980F933020F490E080E00C94920894
:10145000885A873120F490E080E00C94A808089521
:10146000CF93C82F0E94C209C93369F42FEF87EECA
:1014700093E0215080409040E1F700C000008C2FA5
:10148000CF910C94080A2FEF81EE94E02150804018
:101490009040E1F7F2CF882321F00E9438120C949B
:1014A00081120895882321F00E943E120C9481122B
:1014B0000895BF92CF92DF92EF92FF920F931F9306
:1014C000CF93DF936C01D62FC72FFC0105810295C6
:1014D0000F70128111110E9455120E942E12E82ED7
:1014E000882391F01123D1F08C2F807F803421F05C
:1014F00080E28D0F883090F082E00E94CC120E9432
:101500002E1291E0E82EE926BC2EB2949FE0B9227B
:10151000EB2DF0E0E355F34E0C944F1CE12CF4CF8F
:101520000C2F0F70C07F11F00295007F1123A9F0DE
:10153000002359F080E28D0F883010F0D11109C0DE
:10154000802F0E9438120E9481128D2F0E94C209A2
:1015500014C0802F0E944812F6CF8D2F0E94080AD7
:10156000002359F080E28D0F883010F0D1112CC08B
:10157000802F0E943E120E9481122B2D2850330B87
:101580002430310520F40E946C080E94D702EE201E
:1015900009F491C10E942A1280FD8DC1F6011282C8
:1015A0000E9424120E94B010C6010E947C0C0E946E
:1015B0002412DF91CF911F910F91FF90EF90DF9058
:1015C000CF90BF900C94D110802F0E944E12D3CF99
:1015D000FC2FFF70FF2EC07FC03219F0F29480EF15
:1015E000F822DD2369F0D13049F1112391F1002374
:1015F00051F1F601858180FFA8CF8F70858323C0CC
:10160000112381F0011106C00E9468128F290E94E7
:101610004B0AB3CF0130C1F70E9468128F290E9494
:101620006E12ABCF011106C00E9477128F2D0E945F
:10163000520AA3CF013009F4A0CFF6CF112329F02D
:10164000063008F09ACF8F2DE2CF053008F095CF05
:10165000EDCF002359F3D93309F015C1FFEF27EE81
:1016600033E0F15020403040E1F700C000008D2F02
:101670000E94080A82CF8C2F86958695837069F028
:10168000813009F07ACF8D2F9C2F9370111102C0F9
:1016900090E080E00E94A80870CF8D2F9C2F93705F
:1016A000111102C090E080E00E94920866CF8C2F5A
:1016B000837009F041C0111160CF4D2F42954695BE
:1016C0004770440F440F0D2F0F7010E030E020E002
:1016D000042E04C0000F111F221F331F0A94D2F7DB
:1016E00060E070E0CB01D4FF0FC06FE070E080E0FD
:1016F00090E004C0660F771F881F991F4A95D2F7A4
:101700006095709580959095C695C695C370602B31
:10171000712B822B932BC23049F058F4C13019F051
:101720000E9462102ACF0E94501027CF0E9474108E
:1017300024CF0E944E1021CF8695112311F08C2FBB
:101740008170882309F419CF4D2F42954695477033
:10175000440F440F0D2F0F7010E030E020E0042EF6
:1017600004C0000F111F221F331F0A94D2F760E03C
:1017700070E0CB01D4FF0FC06FE070E080E090E03C
:1017800004C0660F771F881F991F4A95D2F760958E
:10179000709580959095C695C695C370602B712BFA
:1017A000822B932BC23049F058F4C13019F00E94BB
:1017B0002711E3CE0E941511E0CE0E943911DDCE33
:1017C0000E948A10DACECF70112329F08C2F0E944C
:1017D000B0108D2F1CCF8D2F0E94520A8C2F0E948B
:1017E000D110CBCED23F89F160F4D03FC9F0D13FC8
:1017F00029F1112309F442C00111A7CE8C2F8F715A
:1018000021C0D33F39F1D43FA1F7112369F1CF7142
:101810008C2F0E94B01063E08C2F0E94B712ADCEC7
:10182000112341F0053008F0A8CE8C2F8F710E9453
:10183000F410A3CE063008F0A0CEF7CF8C2F8F7116
:10184000112369F20E94B01098CE8C2F8F71112352
:10185000C9F3C5CF112329F08C2F8F710E949B10E3
:101860008CCE0E94961089CE81E00E94CC1202306C
:1018700008F483CE82E00E94CC127FCE0111EBCE21
:101880008C2F8F71ACCF8FEF91EEE4E081509040C0
:10189000E040E1F7EACE4C2F4F706D2FC6010E9459
:1018A000BE010E94C60F69CE4C2F4F706D2FC6012E
:1018B0000E94DF0262CEDF91CF911F910F91FF90C6
:1018C000EF90DF90CF90BF9008950F931F93CF9329
:1018D000DF93EC01688179818A810E94EC118C018F
:1018E0000E944B110E944D10B801CE01DF91CF91A3
:1018F0001F910F910C94590ACF93DF93EC018B81C8
:101900009C81892B29F08881998189238F3F59F403
:10191000DF91CF910895CE010E94650CCE01DF9139
:10192000CF910C947002CE010E9495028111F3CFE9
:101930000E942E12882361F38A81882349F382E072
:10194000DF91CF910C94CC120E9455120E94651227
:101950000E94811290E080E00E94920890E080E076
:101960000C94A8080E941E120C94A40C0E9445120C
:101970000C94B20CE92FE295EF70E250EE3070F467
:10198000F0E0E354F34E0C944F1C803F19F020F428
:10199000883E20F481E00895843FE1F380E00895DB
:1019A000883EC0F3813FD1F7F5CF93FB882780F9BC
:1019B00008950E94E2110C94BA0CCF93DF9300D0EB
:1019C00000D00F92CDB7DEB70F900F900F900F9011
:1019D0000F90DF91CF910895CF93DF9300D000D087
:1019E00000D0CDB7DEB726960FB6F894DEBF0FBE97
:1019F000CDBFDF91CF9108951F93CF93DF93C09117
:101A0000AC0116E08091AD018C1304C0DF91CF9141
:101A10001F910895D0E01C9FF0011D9FF00D11242F
:101A2000E255FE4F408151816281738184819581AD
:101A30000E94EC0C2196C770E5CF4091DE015091D9
:101A4000DF016091E0017091E1018091E2019091EC
:101A5000E3010C94EC0C1F93CF93DF938091E3018F
:101A6000807FA9F48091E001882389F08091AC0106
:101A7000C091AD016091DE017091DF01A091E101A3
:101A8000B091E201D62FD72316E0C81304C0DF912E
:101A9000CF911F91089590E0109711F0DF3F19F456
:101AA00001968770F2CF189F9001199F300D112475
:101AB000F901E255FE4F41814713F2CF40814613B1
:101AC000EFCF42814111ECCF438154814A1B5B0B24
:101AD000483C510528F78091E3018F708061809325
:101AE000E301F901ED54FE4F80818F7080618083A6
:101AF0008EED91E00E947C0CDF91CF911F910C94B0
:101B0000FC0CAF92BF92CF92DF92EF92FF920F93B5
:101B10001F93CF93DF93CDB7DEB761970FB6F894DD
:101B2000DEBF0FBECDBF8C0185E0F801DE011D9642
:101B300001900D928A95E1F7F80140815181E28090
:101B40008EEDC82E81E0D82E6091E1017091E20106
:101B50006115710509F461C19091DE012091DF01E9
:101B6000892F82238F3F09F458C1A380B480F0905D
:101B7000E001F501E61BF70BFF2009F4FCC08091A2
:101B8000E301382F307FE83CF10508F0B2C0311195
:101B900079C0FE2C251323C0941321C0E1101FC06F
:101BA0008F7080618093E3010E941D0DC6010E9429
:101BB0007C0C8091E301F80185838F2D61960FB62F
:101BC000F894DEBF0FBECDBFDF91CF911F910F9173
:101BD000FF90EF90DF90CF90BF90AF900895AB282B
:101BE00029F0842F85238F3F09F033C180E0F82F3F
:101BF000F170DF2E80FF3CC08091AC012091AD01DF
:101C000036E0821315C04D875E878D859E850E94C4
:101C1000E211292F22952F702230F0F0243018F590
:101C20009F70F1F0F8019581907FD1F4D12C1EC006
:101C300090E0389FF001399FF00D1124E255FE4FDE
:101C40006181651306C06081641303C062816E11F7
:101C50000FC001968770D5CF9F7011F0882331F3A4
:101C6000805E883018F3C8010E947C0CFD2CA5CF43
:101C7000EE2009F4A2CF8091E30181608093E3011B
:101C8000F12C9BCF251306C0941304C0F801EE205D
:101C900009F48DC04D875E878D859E850E94D90C85
:101CA000882319F1EE2009F18091E301803270F070
:101CB0002091DE013091DF0138872F831986BB86A2
:101CC000AA868C87CE0107960E947C0C86E0F801DC
:101CD000AEEDB1E001900D928A95E1F70E942B0DD7
:101CE0000E941D0DFF24F39468CFC8010E947C0C54
:101CF000F9CF311113C07A2DB98AA88A6E2D89893E
:101D00000E94DD0C8EED91E00E947C0C86E0F601D5
:101D100011928A95E9F70E941D0DB2CF25130FC0CD
:101D200094130DC0E1100BC0F8018583C8010E9417
:101D30007C0C86E0F60111928A95E9F73ECF4D873B
:101D40005E878D859E850E94D90C882371F2EE20D6
:101D500061F28091E301803208F4B8CF2091DE0176
:101D60003091DF013A8329831B82BD82AC828E834E
:101D7000CE010196A9CFE83CF10508F041C0FE2C48
:101D8000EE2009F4B2CF25132AC0941328C0809105
:101D9000E30180FD1BC0982F907FC1F0F80185837F
:101DA000903F31F0982F907F905F8F70892B8583C3
:101DB000C8010E947C0C86E0F801AEEDB1E0019014
:101DC0000D928A95E1F70E941D0DF7CE86E0F8018D
:101DD000AEEDB1E001900D928A95E1F7EECE4D8720
:101DE0005E878D859E850E94D90C81116FCF809171
:101DF000E30181608093E301C8010E947C0CDDCE89
:101E00007A2DB98AA88A6E2D89890E94DD0C86E018
:101E1000F60111928A95E9F7D6CFEE2009F465CF45
:101E20004D875E878D859E850E94D90CF82E88236C
:101E300009F45BCF86E0F801AEEDB1E001900D92C0
:101E40008A95E1F78EED91E00E94BD090E942B0D6D
:101E5000BACF81E08E25CBCE1F93CF93DF93CDB742
:101E6000DEB72C970FB6F894DEBF0FBECDBF4F8301
:101E7000588769877A878B879C87CE0107960E944F
:101E8000810D882369F08A859B85892B39F04F81E4
:101E90005885842F85238F3F09F071C016E05FC0FD
:101EA00086E0FE013796DE01119601900D928A952B
:101EB000E1F78A859B85892B89F38F819885892312
:101EC0008F3F61F32091AD0130E0C9010196877029
:101ED00099274091AC014817190671F40E94B60C7D
:101EE0001092AD011092AC0186E0EEEDF1E0DF0161
:101EF0001D928A95E9F7D2CF96E0929FD001939FE9
:101F0000B00D1124A255BE4FFE01319601900D92E5
:101F10009A95E1F78093AD010E94FC0CBFCF819FA1
:101F2000C001112482559E4F0E94810D8823E9F043
:101F3000E091AC011E9FF0011124E255FE4F40815B
:101F4000518162817381848195810E94EC0C809122
:101F5000AC0190E00196877099278093AC01809145
:101F6000AC019091AD018913DACF2C960FB6F8949D
:101F7000DEBF0FBECDBFDF91CF911F910895698560
:101F80007A858B859C850E94EC0C88CFEF92FF921E
:101F90000F931F93CF93DF938C01892B81F0F12C4A
:101FA000EE24E394E8012196F8018491843770F4DB
:101FB000843008F05FC08130B1F08230A1F1DF9150
:101FC000CF911F910F91FF90EF900895853709F4FD
:101FD0004CC008F43DC09CE7980F903780F78F778E
:101FE0000E94080A49C00E5F1F4FFE01849190E2D3
:101FF000980F983060F48770FE2D01C0FF0F8A950E
:10200000EAF78F2F0E9458120E94811202C00E948C
:10201000C2098F2D815030F2EFE9FFE03197F1F7DF
:1020200000C00000F7CF0E5F1F4FFE01849190E2C9
:10203000980F983050F48770FE2D01C0FF0F8A95DD
:10204000EAF78F2F0E945E12DFCF0E94080AE1CFCD
:102050000E5F1F4FFE01C491C150D8F28FE99FE07F
:102060000197F1F700C00000F7CF0E5F1F4FFE0190
:10207000F490CFCF0E94C2098E01CBCF08950C946B
:102080003E100E943F1060930602709307028093F7
:102090000802909309020C94A40C08950C9441102A
:1020A0000F931F93009106021091070220910802DE
:1020B00030910902602B712B822B932B1F910F9172
:1020C0000C9441100F931F93009106021091070288
:1020D0002091080230910902602371238223932307
:1020E0001F910F910C9441100F931F9300910602C2
:1020F0001091070220910802309109026027712790
:10210000822793271F910F910C9441100C943E103D
:102110000C9486100E948810609302027093030250
:1021200080930402909305020C94A40C60E070E08C
:10213000CB010C948A100F931F9341E050E060E0B4
:1021400070E08A019B0104C0000F111F221F331F82
:102150008A95D2F7C901B8011F910F910C948A108A
:102160000F931F9341E050E060E070E004C0440F23
:10217000551F661F771F8A95D2F7809102029091B2
:102180000302A0910402B09105028A019B01082B71
:10219000192B2A2B3B2BC901B8011F910F910C94CD
:1021A0008A100F931F9341E050E060E070E004C09C
:1021B000440F551F661F771F8A95D2F7CB01BA01CE
:1021C00060957095809590950091020210910302A0
:1021D000209104023091050260237123822393230E
:1021E0001F910F910C948A100F931F9341E050E0C0
:1021F00060E070E004C0440F551F661F771F8A958A
:10220000D2F78091020290910302A0910402B09152
:1022100005028A019B01082719272A273B27C901A4
:10222000B8011F910F910C948A100F931F93009186
:102230000202109103022091040230910502602BEA
:10224000712B822B932B1F910F910C948A100F935B
:102250001F93009102021091030220910402309119
:10226000050260237123822393231F910F910C9405
:102270008A100F931F930091020210910302209184
:1022800004023091050260277127822793271F914E
:102290000F910C948A1008952CE0929F800D1124C8
:1022A000982F977041E001C0440F9A95EAF7869500
:1022B0008695869595E0899FF0011124EC51FE4F9B
:1022C00090E080E070E05191DF0111979B01082EB2
:1022D00002C0369527950A94E2F7217021952527AB
:1022E000242325272C9301968530910561F70895C5
:1022F0002CE0929F800D1124982F977086958695DB
:10230000869525E0829FF0011124EC51FE4F50E0AC
:1023100040E080E0219130E0092E02C036952795FB
:102320000A94E2F721703327042E01C0220F0A9489
:10233000EAF7822B4F5F5F4F4530510559F70895FB
:10234000BF92CF92DF92EF92FF920F931F93CF93A2
:10235000DF938C01C0900202D0900302E09004024F
:10236000F09005028091060290910702A091080268
:10237000B0910902C82AD92AEA2AFB2ACFE1D0E083
:10238000BC2ED701C6010C2E04C0B695A795979513
:1023900087950A94D2F780FD0EC0219788F7B12C5B
:1023A0008B2DDF91CF911F910F91FF90EF90DF90D8
:1023B000CF90BF900895B8018C2F0E94FC02019726
:1023C00061F3EECFCF93DF93EC010E94A011BE0129
:1023D000DF91CF910C94FC021F93CF93DF93EB011D
:1023E0009091AB01992331F0CB01DF91CF911F91F7
:1023F0000C94E211882379F0CB010E94A011182FD0
:10240000682FCE010E944C11BE01812FDF91CF9128
:102410001F910C94FC02CB010E947811182FF4CF6D
:10242000682F80910001909101010C947014682F25
:1024300080910001909101010C947B148091000126
:10244000909101010C94861480910A0285958595DE
:102450008595089580910A028770089590910A02E7
:10246000977081E009F480E0089580912E0208952C
:1024700090912E02892B80932E0208958095909141
:102480002E02982390932E02089510922E02089502
:1024900090912D02892B80932D0208958095909123
:1024A0002D02982390932D02089510922D020895E5
:1024B00090912C02892B80932C0208958095909105
:1024C0002C02982390932C02089510922C020895C8
:1024D00080910B02089508950C946B1290910B0259
:1024E000981721F080930B020C946C120895809140
:1024F0000B02882329F010920B0280E00C946C12DE
:102500000895E0910001F091010180912E028083F5
:10251000E0910001F0910101808190912D02892BC1
:102520008083E0910001F0910101808190912C0263
:10253000892B808390910B02992381F0E091000117
:10254000F09101018081892B80838091000190911D
:1025500001010E94DC1381110E9477128091000119
:10256000909101010C94780808950C94B41298E0AD
:10257000899F90011124622B60930A020E94B0107F
:1025800080910A028595859585950C94B5121092D7
:102590000A0280E00C94B51290910A02809589237A
:1025A00080930A02282F277071F4282F082E000C20
:1025B000330B9217130639F08595859585950E9402
:1025C000D1100C94C7120895CF92DF92EF92FF9230
:1025D0006C01EE24FF2420E0C114D104E104F104D5
:1025E00019F0C701B60120E1C72ED82EE92EFF242D
:1025F000C114D104E104F10419F0285FC701B60148
:102600006B017C0154E0F694E794D794C7945A95F3
:10261000D1F7C114D104E104F10419F02C5FC70112
:10262000B6016B017C0142E0F694E794D794C7941D
:102630004A95D1F7C114D104E104F10419F02E5FD9
:10264000C701B6019695879577956795672B682B97
:10265000692B09F02F5F822FFF90EF90DF90CF90D2
:10266000089590E080E00E94711C21E08C3E9E4F16
:1026700009F020E0822F089582E090E00C94691C1C
:1026800083E090E00C94691CCF9384E090E00E947A
:10269000691CC82F81E290E00E94691C982F8C2F42
:1026A000CF910895CF93C92F682F84E090E00E94C6
:1026B000771C6C2F81E290E0CF910C94771CAB01DA
:1026C000BC018FE090E00C94891CAB01BC0183E15C
:1026D00090E00C94891C60E070E0CB010C946513D1
:1026E00060E070E0CB010E945F130C946B136CEE02
:1026F0007EEF90E080E00E94951C60E082E090E038
:102700000E94771C60E083E090E00E94771C1092AA
:10271000060210920702109208021092090260E06D
:1027200084E090E00E94771C60E081E290E00E94EB
:10273000771C60E085E090E00E94771C60E086E016
:1027400090E00E94771C6FEF87E090E00E94771C7A
:1027500040E050E0BA0188E090E00E94891C60E00F
:102760008DE090E00E94771C40E050E0BA0188E1E3
:1027700090E00E94891C60E087E190E00E94771C55
:1027800040E050E0BA018CE190E00E94891C60E0DA
:1027900080E290E00E94771C40E050E0BA0188E1BE
:1027A00090E00E94891C0C9470130C947713682F8E
:1027B0008EE090E00C94771CFC01329680910C0125
:1027C000882321F0809167029EE187FF96E080E0F8
:1027D000915008F4089521912223D1F38F5FF8CF0F
:1027E000662301F120910C012223F1F02091670270
:1027F00027FF1AC0462F4695469546954E3190F4D0
:10280000677021E030E002C0220F331F6A95E2F7C3
:10281000840F911DFC01828190E02823392381E0FF
:10282000232B69F480E00895FC01329608962191EB
:10283000261721F0E817F907D1F7F4CF81E00895C2
:102840009C01FC0132969FEF80E04191461751F0C8
:102850009F3F19F4411101C0982F8F5F8630A9F76F
:102860009F3F09F40895290F311D97FD3A95F9010D
:1028700062830895FC01329608962191261303C0C5
:10288000DF0111971C92E817F907B9F70895E62FB1
:10289000E695E695E695EE3168F4E80FF92FF11D1F
:1028A000677021E030E001C0220F6A95EAF782816B
:1028B000822B82830895E62FE695E695E695EE3124
:1028C00070F4E80FF92FF11D677021E030E001C0CE
:1028D000220F6A95EAF720958281282322830895A2
:1028E00020910C01222329F02091670227FD0C94EE
:1028F00047140C94201420910C01222329F02091DC
:10290000670227FD0C945B140C943A14FC01329678
:1029100080910C01882351F08091670287FF06C0E7
:102920008EE1DF011D928A95E9F7089586E0F9CFDF
:10293000089508950C9499140E949A1480916D0240
:10294000843049F11092300288E190E020E40FB623
:10295000F894A895809360000FBE2093600080E0FB
:102960000E94D7020E949A1483B7817F846083BF3C
:1029700083B7816083BF7894889583B78E7F83BF48
:102980000FB6F894A89580916000886180936000EC
:10299000109260000FBE08950895CF930E9498147E
:1029A0000E9449050E94CC14C0E08C2F0E94E604CE
:1029B000892B31F4CF5FC430C1F780E0CF91089507
:1029C00081E0FCCF08950C94E2140E94B60C0E94A2
:1029D0006C080E94D7020C94E3141F921FB61F923A
:1029E00011248F939F93AF93BF93809130028111F5
:1029F00013C08091630290916402A0916502B0912E
:102A000066024196A11DB11D8093630290936402FA
:102A1000A0936502B0936602BF91AF919F918F9191
:102A20001F901FBE1F90189582E084BD93E095BD56
:102A30009AEF97BD80936E0008952FB7F894809118
:102A4000630290916402A0916502B09166022FBF6B
:102A500008959C014FB7F8948091630290916402AD
:102A6000A0916502B09166024FBF821B930B08953F
:102A700078941F921FB61F9211248F939F93AF9348
:102A8000BF938091630290916402A0916502B0911E
:102A900066020196A11DB11D8093630290936402AA
:102AA000A0936502B0936602BF91AF919F918F9101
:102AB0001F901FBE1F90189581E08093E00080E278
:102AC0008093D8001092C9008FE19EE40197F1F73E
:102AD00000C0000087E090EBDC01809376029093C9
:102AE0007702A0937802B093790288E19CE00FB658
:102AF000F894A895809360000FBE90936000FFCF7C
:102B00000E943113811102C00E94D5130E943C1310
:102B100080932F020E94441390936802809367026F
:102B20000E944013682F70E090E080E00E944E10F9
:102B3000609102027091030280910402909105025B
:102B40000C9488108091510208950895CF93DF93DB
:102B500000D00F92CDB7DEB790916D02943019F589
:102B600089837B836A8382E08093E9008FEF909171
:102B7000E800815095FD06C095ED9A95F1F70000AB
:102B80008111F5CF8091E80085FF0DC050E040E055
:102B900063E070E0CE0101960E94AA178091E800E0
:102BA0008E778093E8000F900F900F90DF91CF9178
:102BB0000895BC0184E00C94A615BC0183E00C943C
:102BC000A615CF93DF93EC0180910C018823B1F11E
:102BD0008091670287FF32C060E282E08093E90063
:102BE0008FEF9091E800815095FD06C095ED9A9584
:102BF000F1F700008111F5CF8091E80085FF1BC03F
:102C000080910C0170E050E040E0811104C050E080
:102C100040E068E070E0CE010E94AA178091E800D1
:102C20008E778093E80080E2FE01A1E3B2E001909C
:102C30000D928A95E1F7DF91CF91089568E081E0E8
:102C4000CDCF80916C02811109C00E943A190E9477
:102C500097198091E20084608093E20008951092B9
:102C60006C020895089508950C94E51442E061EC17
:102C700081E00E94B61842E261EC82E00C94B61842
:102C800080916F02833009F45FC030F48130C1F16C
:102C9000823009F49BC008958A3009F487C08B30D4
:102CA00009F46DC0893009F04EC080916E02813206
:102CB00009F049C08091720290917302029708F066
:102CC00042C08091E800877F8093E8008091E8000F
:102CD00082FF35C09091F3008091F200029729F4B1
:102CE0008091F1008B7F813021F48091F1008093FD
:102CF00051028091E8008B778093E8000C94EA18E9
:102D000080916E02813AF9F48091E800877F809388
:102D1000E8008091720290917302892B61F460E265
:102D200081E392E070E00E94F9178091E8008B77D0
:102D30008093E800089560E090E080E0F3CF809118
:102D40006D028111C3CF089580916E02813AD9F747
:102D50008091720290917302892BA9F78091E8000B
:102D6000877F8093E8008091E80080FFFCCF80910E
:102D70000C018093F1008091E8008E77BDCF8091A7
:102D80006E02813201F78091720290917302892B59
:102D9000D1F68091E800877F8093E8000E94EA18CE
:102DA0008091700280930C010C94B60C80916E029D
:102DB000813249F68091E800877F8093E8000E9485
:102DC000EA188091710280935202089580916E02F8
:102DD000813A09F0B8CF8091E800877F8093E800BE
:102DE0008091E80080FFFCCF80915202C2CF84B76F
:102DF000877F84BF0FB6F894A895809160008861A2
:102E000080936000109260000FBE80E890E00FB6E3
:102E1000F89480936100909361000FBE0E94CC08EB
:102E20000E943A190E9497198091E2008460809371
:102E3000E20078940E94201C0E94D80882E091E071
:102E40000E94670880916D02853039F00E94E20887
:102E50000E94D6080E94D708F5CF0E949C1480914A
:102E60006B02882379F30E94CD14882359F30E94C2
:102E70009417E8CF0C943C17292F332723303105C2
:102E800019F168F42130310509F444C022303105CC
:102E900009F445C090E080E030E020E025C0213218
:102EA000310549F122323105A9F780E490E02AEAA0
:102EB00032E061157105C1F08DE690E02DE332E05E
:102EC0006130710589F0E6CF99278130910581F055
:102ED000009729F00297F1F6ECECF1E002C0ECEE7D
:102EE000F1E0849190E09F01FA01318320830895FD
:102EF000E8EDF1E0F6CF89E090E022E032E0611504
:102F0000710591F389E090E02BE132E061307105C9
:102F100059F3C0CF82E190E02BE232E0E5CF8BE3C2
:102F200090E020EF31E0E0CF80E189BD82E189BD12
:102F300009B400FEFDCF8091D8008F7D8093D8002A
:102F40008091E00082608093E0008091E00081FD4C
:102F5000FCCF0895AF92BF92CF92DF92FF920F9372
:102F60001F93CF93DF936C01EB018A010E94091933
:102F7000F82E811123C00115110539F0F801808167
:102F80009181C81BD90BC80ED91EB12CA12C20973A
:102F9000A9F08091E80085FD22C08091E8008E773D
:102FA0008093E80001151105A1F0F801808191815D
:102FB000A80EB91EB182A08285E0F82E8F2DDF9178
:102FC000CF911F910F91FF90DF90CF90BF90AF9066
:102FD00008950E9409198823D1F2F82EEFCFF60147
:102FE00081916F018093F1002197FFEFAF1ABF0A23
:102FF000CECFFC01809174029091750286179707DD
:10300000A0F06115710529F49091E8009E779093E6
:10301000E80090E06115710551F4911108C08091AC
:10302000E80082FF34C080E00895BC01F2CF8091B7
:103030006D028823C1F18530C1F18091E80083FDE4
:1030400030C08091E80082FDEACF8091E80080FFE7
:10305000E1CF8091F3002091F200382F61157105C6
:1030600019F02830310558F091E02830310509F089
:1030700090E02091E8002E772093E800CBCF81915B
:103080008093F100615071092F5F3F4FE7CF80912E
:103090006D02882341F0853041F08091E80083FF84
:1030A000BECF81E0089582E0089583E00895FC0199
:1030B000809174029091750286179707A0F06115B0
:1030C000710529F48091E8008E778093E80090E004
:1030D0006115710551F4911108C08091E80082FFDB
:1030E00035C080E00895BC01F2CF80916D02882345
:1030F000C9F18530C9F18091E80083FD31C080912C
:10310000E80082FDEACF8091E80080FFE1CF809166
:10311000F3002091F200382F6115710519F0283065
:10312000310558F091E02830310509F090E08091A8
:10313000E8008E778093E800CBCF84918093F100F4
:103140003196615071092F5F3F4FE6CF80916D023C
:10315000882341F0853041F08091E80083FFBDCFA6
:1031600081E0089582E0089583E00895982F9730D4
:1031700028F08F708093E90081E008959093E90032
:10318000242F762F50E0981731F07091EC002091A9
:10319000ED005091F00021FD02C09F5FE8CF30911B
:1031A000EB003E7F3093EB003091ED003D7F30939C
:1031B000ED003091EB0031603093EB007093EC0048
:1031C0002093ED005093F0002091EE0027FDE5CF15
:1031D00080E0089580916E0287FF13C08091E8001F
:1031E00082FF06C08091E8008B778093E80004C0DE
:1031F00080916D028111F2CF089580916D02882334
:10320000D9F38091E80080FFF8CF8091E8008E77B5
:10321000ECCF2091E4003091E50095E6A9012091E2
:10322000EC00822F817020FF06C08091E80080FFB3
:1032300006C080E008952091E80022FD1AC0809128
:103240006D02882389F0853089F08091EB0085FD3F
:103250000FC02091E4003091E50042175307F9F2C6
:103260009150E1F684E0089582E0089583E00895A6
:1032700081E008950E94A8190E94B019E0EEF0E0E4
:10328000808181608083E8EDF0E080818F778083AA
:1032900019BCA7EDB0E08C918E7F8C9380818F7EDE
:1032A000808310926C0208950F931F93CF93DF9346
:1032B0000E94A8190E94B019C8EDD0E088818F77CC
:1032C000888388818068888388818F7D888319BC02
:1032D00010926D021092690210926B0210926A02B3
:1032E00000EE10E0F80180818B7F8083888181600F
:1032F000888342E060E080E00E94B618E1EEF0E0F2
:1033000080818E7F8083E2EEF0E080818160808327
:10331000808188608083F80180818E7F80838881AE
:1033200080618883DF91CF911F910F910895E8ED1F
:10333000F0E080818F7E8083E7EDF0E08081816026
:10334000808384E082BF81E080936C020C945419E6
:10335000E8EDF0E080818E7F80831092E200089596
:103360001092DA001092E10008951F920F920FB6AA
:103370000F9211242F933F934F935F936F937F93FB
:103380008F939F93AF93BF93EF93FF938091E1004F
:1033900082FF0BC08091E20082FF07C08091E100B4
:1033A0008B7F8093E1000E941F1C8091DA0080FFD8
:1033B00019C08091D80080FF15C08091DA008E7FFF
:1033C0008093DA008091D90080FF96C080E189BDAA
:1033D00082E189BD09B400FEFDCF81E080936D02DA
:1033E0000E9421168091E10080FF19C08091E200C7
:1033F00080FF15C08091E2008E7F8093E200809173
:10340000E20080618093E2008091D8008062809326
:10341000D80019BC85E080936D020E94331680911C
:10342000E10084FF2BC08091E20084FF27C080E18F
:1034300089BD82E189BD89B5982F917080FFFBCF4E
:103440008091D8008F7D8093D8008091E1008F7E9D
:103450008093E1008091E2008F7E8093E200809172
:10346000E20081608093E20080916902882309F480
:1034700049C084E080936D020E9434168091E1007F
:1034800083FF29C08091E20083FF25C08091E10085
:10349000877F8093E10082E080936D021092690241
:1034A0008091E1008E7F8093E1008091E2008E7F29
:1034B0008093E2008091E20080618093E20042E02C
:1034C00060E080E00E94B6188091F00088608093F0
:1034D000F0000E943216FF91EF91BF91AF919F9142
:1034E0008F917F916F915F914F913F912F910F90AD
:1034F0000FBE0F901F90189519BC10926D020E947C
:103500002F1670CF8091E30087FD93E090936D02BA
:10351000B3CF1F920F920FB60F9211242F933F93A8
:103520004F935F936F937F938F939F93AF93BF93CB
:10353000CF93DF93EF93FF93D091E900DF708091F9
:10354000EC00C82FC17080FDC0E81092E9008091A6
:10355000F000877F8093F00078940E94CD1A10923B
:10356000E9008091F00088608093F000CD2BCF704F
:10357000C093E900FF91EF91DF91CF91BF91AF919F
:103580009F918F917F916F915F914F913F912F917B
:103590000F900FBE0F901F9018951F93CF93DF933E
:1035A000CDB7DEB7AA970FB6F894DEBF0FBECDBF7A
:1035B0008EE692E02091F100FC012193CF01F2E030
:1035C00086379F07B9F70E9440168091E80083FF75
:1035D0001EC180916E0290916F029A3008F017C15F
:1035E000E92FF0E0E553F34E0C944F1C803899F02E
:1035F000823809F00CC1809172028F70873008F018
:1036000006C18093E9008091EB0085FB882780F953
:103610001092E90006C080916A0290916B029111AC
:1036200082609091E800977F9093E8008093F1008A
:103630001092F1008091E8008E77E5C0882309F4AC
:10364000D3C0823009F0E3C0809170028111D6C0EE
:10365000809172028F702FEF280F263008F0D7C0AC
:103660008093E9002091EB0020FFC8C0933031F433
:103670008091EB0080628093EB00C0C09091EB00E2
:1036800090619093EB0021E030E001C0220F8A9519
:10369000EAF72093EA001092EA008091EB0088603C
:1036A000EACF8111B4C0109170021F778091E300BE
:1036B0008078812B8093E3008091E800877F80935E
:1036C000E8000E94EA188091E80080FFFCCF80911A
:1036D000E30080688093E30082E0111183E080932F
:1036E0006D0295C08058823008F091C080917002C0
:1036F000909171028C3D23E09207A1F583E08A83CB
:103700008AE289834FB7F894DE01139620E03EE009
:1037100051E2E32FF0E050935700E49120FF03C003
:10372000E295EF703F5FEF708E2F90E0EA30C0F0CF
:10373000C7968D939D932F5F243159F74FBF80918A
:10374000E800877F8093E8006AE270E0CE0101968E
:103750000E94F9178091E8008B778093E80057C0AA
:10376000C096E7CF6091720270917302AE014F5F15
:103770005F4F0E943A17BC01892B09F448C0909111
:10378000E800977F9093E80089819A810E945718FA
:10379000E1CF8038E1F58091E800877F8093E800F1
:1037A000809169028093F10045CF811130C09091E2
:1037B0007002923060F58091E800877F8093E80086
:1037C000909369020E94EA1880916902882311F09F
:1037D00084E005C08091E30087FDFACF81E080930B
:1037E0006D020E94361613C080917002813079F408
:1037F00081E0933009F080E080936B021092E90041
:103800008091E800877F8093E8000E94EA18809109
:10381000E80083FF0AC08091E800877F8093E8007A
:103820008091EB0080628093EB00AA960FB6F8942B
:10383000DEBF0FBECDBFDF91CF911F9108950895D8
:10384000CF9380916D028823A1F0C091E900CF70E1
:103850009091EC00892F817090FD80E8C82B109228
:10386000E9008091E80083FD0E94CD1ACF70C093DB
:10387000E900CF91089597FB072E16F4009407D026
:1038800077FD09D00E94551C07FC05D03EF49095A9
:1038900081959F4F0895709561957F4F0895EE0F24
:1038A000FF1F0590F491E02D0994AA1BBB1B51E169
:1038B00007C0AA1FBB1FA617B70710F0A61BB70BA0
:1038C000881F991F5A95A9F780959095BC01CD0145
:1038D0000895F999FECF92BD81BDF89A992780B5D8
:1038E0000895A8E1B0E042E050E00C949D1C262F22
:1038F000F999FECF92BD81BDF89A019700B40216E6
:1039000039F01FBA20BD0FB6F894FA9AF99A0FBE93
:1039100008950396272F0E94781C0E94771C252F5C
:103920000E94781C242F0C94781C0196272F0E944B
:10393000781C0C94771CDC01CB01FC01F999FECFBB
:1039400006C0F2BDE1BDF89A319600B40D92415027
:103950005040B8F70895F894FFCF900A900AE80A0B
:10396000E80A3B0BBD0ABD0ABD0A570BE30BF20B7D
:10397000F20B4B0CBD0ABD0A540CC50CC50CCE0C89
:10398000CE0CD00CCE0CCE0CCE0CC50CC50CD50C70
:10399000CE0CCE0CD50CF61A1E1B071C1E1B071CCA
:0A39A000511B721B071CC91BD51B2D
:1039AA000C02A215E115A515DD15D91501E200E9EC
:1039BA0000EA00B500B600B700CD008301CC008A4A
:1039CA0001920194012102230224022502260227E0
:1039DA00022A02B300B4006F007000818283F0955E
:1039EA00F4F5F6F76766363534949293F13700FFAB
:1039FA000100010000FFFF0000010001FF00E200DA
:103A0A00E900EA00B500B600B700CD008301CC009A
:103A1A008A0192019401210223022402250226022C
:103A2A0027022A02B300B4006F007000818283006B
:00000001FF
